:030000000200D625
:0C00D600787FE4F6D8FD75810A02000373
:10000300E4F508F509F50A20B703750801E508606A
:10001300F6E4F50AC3E50A940374809480502FE450
:10002300F509C3E509940474809480501DE50925FE
:10003300E0FFF87403088002C333D8FCF4F5907F23
:10004300F47E011200BD050980D8050A80C67590AB
:10005300FF7FE87E031200BD7590AAE4F50AC3E5AD
:100063000A9402748094805020E4F509C3E509944E
:100073000374809480500E7FF47E011200BD639060
:10008300FF050980E7050A80D57590FF7FE87E03A9
:100093001200BDE4F590F50AC3E50A940574809453
:1000A30080500E7FF47E011200BD6390FF050A802D
:0A00B300E77590FFE4F50802000A6B
:1000BD00D3EF9401EE9400400F7D027CEFDCFEDD6A
:0800CD00FCEF1F70EB1E80E840
:0100D5002208
:0800E2007F027E27DEFEDFFC39
:0100EA0022F3
:0500EB00007F1BDFFE99
:0100F00022ED
:00000001FF
